:020000040000FA
:02000000742862
:040002000034003492
:08000800F000030EF10083017A
:100010000A08F2006008F5006108F6006208F700BF
:100020006308F8006408F9006508FA006608FB0038
:100030006708FC006808FD00C72882073F340634C3
:100040005B344F3466346D347D3407347F346F3421
:1000500077347C3439345E347934713482074334F4
:100060006F346E347434613464346F3472343A34BF
:1000700020342034203420342034203420345434AC
:10008000653463346C3461343A34203420342034A1
:1000900020342034203420342034203420342034C0
:1000A00020348207EE34DE34BE347E34ED34DD3469
:1000B000BD347D34EB34DB34BB347B34E734D734AC
:1000C000B734773482073034313432343334343413
:1000D00035343634373438343934413442344334A7
:1000E0004434453446344034850186018701880113
:1000F000890183160317880189010313F0308600F4
:1001000087018801051085105530810096098312FA
:100110007F21A00120082E20BE21A00A1030200639
:10012000031D8A284030BC211030A00020082E205A
:10013000BE21A00A20302006031D9628A821A80170
:10014000833081003E30A30006080B108B150B1185
:100150008B168B17A101A0013C30A20020081D20A6
:10016000880005147121051021081D2088008514C0
:1001700071218510A20BAE28A00A0A302006031DAB
:10018000AC28A10A0A302106031DAB28AA280B1DA2
:10019000D828A30BD4283E30A300A80A2808A90019
:1001A0001D210D30AB003321833081000B11032959
:1001B00085017721F0300605AE0083160F308600EA
:1001C0008113831286010F300605AE07AF012F0899
:1001D00051202E060319F128AF0A10302F06031DF7
:1001E000E7284F30AB00BC212F086220BE21060853
:1001F0000B100B1CF92877218316F0308600811331
:10020000831206080B1000007508E0007608E10074
:100210007708E2007808E3007908E4007A08E5004E
:100220007B08E6007C08E7007D08E80072088A0089
:10023000710E8300F00E700E0900A501A601A70142
:100240006430A902031C2629A70A20296430A907C3
:100250000A30A902031C2E29A60A28290A30A90758
:100260002908A50008003030A507A607A7072B0816
:10027000BC212708BE212608BE212508BE21080072
:100280000000000000000000E00B402908006208A8
:10029000E3000000000000000000E30B4929E10B2F
:1002A000472908006608E7006508E800000000002C
:1002B00000000000E80B5629E70B5429E40B5229F3
:1002C0000800D330E400D330E5006030E60052216E
:1002D00008000730E4003130E500F730E600522135
:1002E00008009D30E1000730E20047210800193086
:1002F000E4002F30E5000330E60052210800E8302A
:10030000E1003D30E20047218F218F218F21023013
:1003100087009821A421A621AE21B0210800033036
:10032000870098219C30E1000430E200472108005A
:100330008716000000000000000087120830E1006E
:100340002330E200472108002830CA290830CA2992
:100350000C30CA290E30CA290F30CA290130CA29E7
:100360000630CA290230CA291C30CA291830CA29C5
:100370001430CA291030CA298038CA29AA002A0E86
:100380000F398700071698212A080F3987000716AA
:1003900098210800AA002A0E0F39870098212A0800
:0803A0000F39870098210800C5
:02400E00E423A9
:02401000FF3F70
:00000001FF
