:020000040000FA
:020000003F2897
:040002000034003492
:08000800F000030EF10083017A
:100010000A08F2006008F5006108F6006208F700BF
:100020006308F8006408F9006508FA006608FB0038
:100030006708FC006808FD007E2882073F3406340C
:100040005B344F3466346D347D3407347F346F3421
:1000500077347C3439345E34793471348207EE3449
:10006000DE34BE347E34ED34DD34BD347D34EB34E7
:10007000DB34BB347B34E734D734B7347734850191
:100080008601870188018901831603178801890188
:1000900003131930990022309800F030860088014F
:1000A00085010910891081139609831290309800F8
:1000B0008C1283168C16831206080B108B150B17E7
:1000C0008B17A101A0013C30A20020081D20880050
:1000D00009140421091021081D2088008914042115
:1000E0008910A20B6528A00A0A302006031D632888
:1000F000A10A0A302106031D622861280B1CAD28C5
:100100000A21F0300605AE0083160F3086008113F9
:10011000831286010F300605AE07AF012F082E208F
:100120002E0603199A28AF0A10302F06031D8E28B9
:100130001030AF008316981C9B2883122F0A990059
:100140000F300606031DA0280A218316F030860012
:100150008113831206080B10B9281819B4289818AF
:10016000B4281A088500B828181218161A081A0890
:100170008C1200007508E0007608E1007708E200C4
:100180007808E3007908E4007A08E5007B08E600D7
:100190007C08E7007D08E80072088A00710E830081
:1001A000F00E700E09000000000000000000E00BDF
:1001B000D32808006208E3000000000000000000EF
:1001C000E30BDC28E10BDA2808006608E700650885
:1001D000E8000000000000000000E80BE928E70B41
:1001E000E728E40BE5280800D330E400D330E5002D
:1001F0006030E600E52008000730E4003130E5001B
:10020000F730E600E52008009D30E1000730E2000D
:10021000DA2008001930E4002F30E5000330E60052
:10022000E5200800E830E1003D30E200DA2022213C
:1002300022212221023087002B213721392141211F
:1002400043210800033087002B219C30E10004305B
:10025000E200DA200800871600000000000000001D
:1002600087120830E1002330E200DA20080028304D
:100270005D2908305D290C305D290E305D290F3075
:100280005D2901305D2906305D2902305D291C3071
:100290005D2918305D2914305D2910305D298038C2
:1002A0005D29AA002A0E0F39870007162B212A087C
:1002B0000F39870007162B210800AA002A0E0F39D4
:0E02C00087002B212A080F3987002B21080008
:02400E00E423A9
:02401000FF3F70
:00000001FF
