:020000040000FA
:020000003F2897
:040002000034003492
:08000800F000030EF10083017A
:100010000A08F2006008F5006108F6006208F700BF
:100020006308F8006408F9006508FA006608FB0038
:100030006708FC006808FD007E2882073F3406340C
:100040005B344F3466346D347D3407347F346F3421
:1000500077347C3439345E34793471348207EE3449
:10006000DE34BE347E34ED34DD34BD347D34EB34E7
:10007000DB34BB347B34E734D734B7347734850191
:100080008601870188018901831603178801890188
:1000900003131930990026309800F030860088014B
:1000A00085010910891081139609831290309800F8
:1000B0008C1283168C16831206080B108B150B17E7
:1000C0008B17A101A0013C30A20020081D20880050
:1000D00005141B21051021081D20880085141B21F3
:1000E0008510A20B6528A00A0A302006031D63288C
:1000F000A10A0A302106031D622861280B1CBF28B3
:100100002121F0300605AE0083160F3086008113E2
:10011000831286010F300605AE07AF012F082E208F
:100120002E0603199A28AF0A10302F06031D8E28B9
:100130001030AF007E21483099007E216F30990049
:100140007E216C3099007E21613099007E21203023
:1001500099002F0A303E99007E210A3099007E21B5
:100160000D3099000F300606031DB2282121831699
:10017000F03086008113831206080B10D02818195E
:10018000CB289818CB281A08B0006030B002300E87
:10019000F0398500CF28181218161A081A088C1280
:1001A00000007508E0007608E1007708E2007808B2
:1001B000E3007908E4007A08E5007B08E6007C08A3
:1001C000E7007D08E80072088A00710E8300F00ED7
:1001D000700E09000000000000000000E00BEA289B
:1001E00008006208E3000000000000000000E30BCC
:1001F000F328E10BF12808006608E7006508E8002D
:100200000000000000000000E80B0029E70BFE28BA
:10021000E40BFC280800D330E400D330E500603064
:10022000E600FC2008000730E4003130E500F7303C
:10023000E600FC2008009D30E1000730E200F120DC
:1002400008001930E4002F30E5000330E600FC2000
:100250000800E830E1003D30E200F1203921392189
:1002600039210230870042214E21502158215A2144
:1002700008000330870042219C30E1000430E20096
:10028000F12008008716000000000000000087121F
:100290000830E1002330E200F12008002830742902
:1002A000083074290C3074290E3074290F307429E9
:1002B0000130742906307429023074291C307429E5
:1002C0001830742914307429103074298038742936
:1002D000AA002A0E0F398700071642212A080F3973
:1002E0008700071642210800AA002A0E0F3987004E
:1002F00042212A080F398700422108008316981CE2
:060300007F2983120800B2
:02400E00E423A9
:02401000FF3F70
:00000001FF
