:020000040000FA
:1000000012288207C034F934A434B03499349234BD
:100010008234F8348034983488348334C634A1343C
:1000200086348E3485018601870188018901831613
:100030000317880189010313880105108312051431
:10004000A0012008012088000330E400EA30E50028
:10005000CB30E6004120A00A0F30A0052128000087
:10006000000000000000E00B2F2808006208E300F9
:100070000000000000000000E30B3828E10B3628E8
:1000800008006608E7006508E800000000000000BE
:100090000000E80B4528E70B4328E40B4128080043
:1000A000D330E400D330E5006030E60041200800A2
:1000B0000730E4003130E500F730E6004120080069
:0400C00000340034D4
:02400E00E423A9
:02401000FF3F70
:00000001FF
