:020000040000FA
:10000000850186018701880189018316031788010C
:10001000890103138801051083120514A00120082B
:100020001D2088000330E400EA30E500CB30E60014
:100030004020A00A0F30A0050F2882073F34063465
:100040005B344F3466346D347D3407347F346F3421
:1000500077347C3439345E347934713400000000F4
:1000600000000000E00B2E2808006208E3000000FA
:10007000000000000000E30B3728E10B35280800E2
:100080006608E7006508E8000000000000000000C6
:10009000E80B4428E70B4228E40B40280800D33043
:1000A000E400D330E5006030E6004020080007306F
:1000B000E4003130E500F730E60040200800193058
:0E00C000E4002F30E5000330E6004020080089
:0200CE000034FC
:0200D0000034FA
:02400E00E423A9
:02401000FF3F70
:00000001FF
