:020000040000FA
:020000003E2898
:040002000034003492
:08000800F000030EF10083017A
:100010000A08F2006008F5006108F6006208F700BF
:100020006308F8006408F9006508FA006608FB0038
:100030006708FC006808FD006928820745346C34B5
:1000400020346E3475346D34653472346F3420343A
:1000500020342034203420342034203461346C3473
:100060006534613474346F34723469346F342034DD
:10007000653473343A3420342034203485018601C9
:1000800087018801890183160317880189010313F9
:1000900086018312EF20A00120081D202E21A00A36
:1000A00010302006031D4C2840302C211030A000B9
:1000B00020081D202E21A00A20302006031D5828CC
:1000C00018218316860983128B100B168B17A10A31
:1000D0006728061C6928E72006186C28E720A50178
:1000E000A601A7016430A102031C7828A70A722880
:1000F0006430A1070A30A102031C8028A60A7A28CE
:100100000A30A1072108A500831686098312303022
:10011000A507A607A7074D302C2127082E21260862
:100120002E2125082E218316860983128B1075082F
:10013000E0007608E1007708E2007808E30079083B
:10014000E4007A08E5007B08E6007C08E7007D080B
:10015000E80072088A00710E8300F00E700E09002C
:100160000000000000000000E00BB028080062085A
:10017000E3000000000000000000E30BB928E10BE1
:10018000B72808006608E7006508E80000000000DE
:1001900000000000E80BC628E70BC428E40BC228C7
:1001A0000800D330E400D330E5006030E600C22020
:1001B00008000730E4003130E500F730E600C220E7
:1001C00008009D30E1000730E200B7200800193038
:1001D000E4002F30E5000330E600C2200800E830DC
:1001E000E1003D30E200B720FF20FF20FF20023079
:1001F00086000821142116211E2120210800033029
:10020000860008219C30E1000430E200B72008009D
:100210008616000000000000000086120830E10091
:100220002330E200B720080028303A2908303A2964
:100230000C303A290E303A290F303A2901303A2948
:1002400006303A2902303A291C303A2918303A2926
:1002500014303A2910303A2980383A29AA002A0E57
:100260000F398600061608212A080F39860006165F
:1002700008210800AA002A0E0F39860008212A0842
:080280000F3986000821080077
:02400E00E423A9
:02401000FF3F70
:00000001FF
