:020000040000FA
:10000000850186018701880189018316031788010C
:10001000890103138910831289140130E4000E3022
:10002000E5000B30E6002F2089100430E400273073
:10003000E5000130E6002F200C2800000000000041
:100040000000E00B1D2808006208E300000000002B
:1000500000000000E30B2628E10B242808006608B6
:10006000E7006508E8000000000000000000E80B61
:100070003328E70B3128E40B2F280800D330E400A5
:10008000D330E5006030E6002F2008000730E400A0
:0C0090003130E500F730E6002F200800BA
:04009C0000340034F8
:02400E00E423A9
:02401000FF3F70
:00000001FF
