:020000040000FA
:100000002228820745346C3420346E3475346D34C4
:10001000653472346F34203420342034203420345A
:100020002034203461346C346534613474346F347A
:10003000723469346F342034653473343A34203484
:1000400020342034850186018701880189018316C7
:100050000317880189010313860183127D20A00103
:1000600020080120BC20A00A10302006031D3028E3
:100070004030BA201030A00020080120BC20A00A87
:1000800020302006031D3C28A62045280000000043
:1000900000000000E00B462808006208E3000000B2
:1000A000000000000000E30B4F28E10B4D28080082
:1000B0006608E7006508E800000000000000000096
:1000C000E80B5C28E70B5A28E40B58280800D330CB
:1000D000E400D330E5006030E60058200800073027
:1000E000E4003130E500F730E600582008009D308C
:1000F000E1000730E2004D200800E830E1003D302B
:10010000E2004D208D208D208D200230860096202B
:10011000A220A420AC20AE20080003308600962048
:100120009C30E1000430E2004D20080086160000FB
:1001300000000000000086120830E1002330E200D9
:100140004D2008002830C8280830C8280C30C8289E
:100150000E30C8280F30C8280130C8280630C828FB
:100160000230C8281C30C8281830C8281430C828C5
:100170001030C8288038C828AA002A0E0F398600F7
:10018000061696202A080F398600061696200800C3
:10019000AA002A0E0F39860096202A080F398600F9
:0401A000962008009D
:0401A40000340034EF
:02400E00E423A9
:02401000FF3F70
:00000001FF
