:020000040000FA
:10000000850186018701880189018316031788010C
:10001000890103138312863084002030F0008400AD
:10002000AB308000F00A7008703C03191628700885
:100030000F280000000000000000E00B1928080055
:100040006208E3000000000000000000E30B22282B
:10005000E10B202808006608E7006508E8000000BA
:10006000000000000000E80B2F28E70B2D28E40B10
:100070002B280800D330E400D330E5006030E600E0
:100080002B2008000730E4003130E500F730E600AF
:100090002B2008001930E4002F30E5000330E60083
:0400A0002B20080009
:0400A40000340034F0
:02400E00E423A9
:02401000FF3F70
:00000001FF
