:020000040000FA
:10000000850186018701880189018316031788010C
:100010008901031388018312091C0C281720091871
:100020000F281720F03088001F20880E1428033076
:10003000E4002F30E5001930E60025200800F330F9
:10004000E1007530E200342008006608E70065082A
:10005000E8000000000000000000E80B2928E70B82
:100060002728E40B252808006208E30000000000B0
:0E00700000000000E30B3628E10B34280800E6
:02007E0000344C
:0200800000344A
:02400E00E423A9
:02401000FF3F70
:00000001FF
