:020000040000FA
:10000000850186018701880189018316031788010C
:1000100089010313F830880089008312091009153B
:1000200008144A2009110530A000891452208910B3
:100030005220A00B15280810081509144A20081191
:100040000530A0008814522088105220A00B2228CE
:100050000E280000000000000000E00B2928080026
:100060006208E3000000000000000000E30B3228FB
:10007000E10B302808006608E7006508E80000008A
:10008000000000000000E80B3F28E70B3D28E40BD0
:100090003B280800D330E400D330E5006030E600B0
:1000A0003B2008000730E4003130E500F730E6007F
:0400B0003B200800E9
:0400B40000340034E0
:02400E00E423A9
:02401000FF3F70
:00000001FF
