:020000040000FA
:10000000012885018601870188018901831603176C
:100010008801890103138801860183128609031070
:100020000814080986004F30E4000330E500FD3075
:10003000E6003020880D031C11280F280000000066
:1000400000000000E00B1E2808006208E30000002A
:10005000000000000000E30B2728E10B2528080022
:100060006608E7006508E8000000000000000000E6
:10007000E80B3428E70B3228E40B30280800D33093
:10008000E400D330E5006030E6003020080007309F
:10009000E4003130E500F730E600302008009D3004
:0A00A000E1000730E200252008000F
:0400AA0000340034EA
:02400E00E423A9
:02401000FF3F70
:00000001FF
