:020000040000FA
:10000000122882073F3406345B344F3466346D3433
:100010007D3407347F346F3477347C3439345E3444
:10002000793471348501860187018801890183163D
:1000300003178801890103138801051085108312B5
:10004000A101A0013C30A200200801208800051475
:100050006E20051021080120880085146E2085106F
:10006000A20B2428A00A0A302006031D2228A10A78
:100070000A302106031D212820280000000000006E
:100080000000E00B3D2808006208E30000000000CB
:1000900000000000E30B4628E10B44280800660836
:1000A000E7006508E8000000000000000000E80B21
:1000B0005328E70B5128E40B4F280800D330E40005
:1000C000D330E5006030E6004F2008000730E40040
:1000D0003130E500F730E6004F2008009D30E100A8
:0800E0000730E2004420080093
:0400E80000340034AC
:02400E00E423A9
:02401000FF3F70
:00000001FF
