:020000040000FA
:10000000122882073F3406345B344F3466346D3433
:100010007D3407347F346F3477347C3439345E3444
:10002000793471348501860187018801890183163D
:1000300003178801890103138801061086108312B3
:10004000A201A101A0012108012006108800861448
:100050000730E4005430E5000230E6006120000083
:10006000200801208610880006140130E4000530C5
:10007000E500D530E6006120A20A22083C3A031DC3
:100080002328A201A00A20080A3A031D2328A00160
:10009000A10A21080A3A031D2328A10123280000F0
:1000A000000000000000E00B4F2808006208E30099
:1000B0000000000000000000E30B5828E10B562868
:1000C00008006608E7006508E8000000000000007E
:1000D0000000E80B6528E70B6328E40B61280800A3
:1000E000D330E400D330E5006030E6006120080042
:1000F0000730E4003130E500F730E6006120080009
:040100000034003493
:02400E00E423A9
:02401000FF3F70
:00000001FF
