:020000040000FA
:10000000012885018601870188018901831603176C
:100010008801890103138601870183128709A001E2
:1000200020082520860020082E2087000230E400CA
:100030009330E5000130E6004920FF308700A00A38
:1000400008302006031D10280F28820700342434AE
:1000500024342434813442343C3400348207FE3466
:10006000FD34FB34F734EF34DF34BF347F34000029
:10007000000000000000E00B372808006208E300E1
:100080000000000000000000E30B4028E10B3E28C8
:1000900008006608E7006508E800000000000000AE
:1000A0000000E80B4D28E70B4B28E40B492808001B
:1000B000D330E400D330E5006030E600492008008A
:1000C0000730E4003130E500F730E6004920080051
:0C00D0009D30E1000730E2003E200800F7
:0400DC0000340034B8
:02400E00E423A9
:02401000FF3F70
:00000001FF
