:020000040000FA
:020000004F2887
:040002000034003492
:08000800F000030EF10083017A
:100010000A08F2006008F5006108F6006208F700BF
:100020006308F8006408F9006508FA006608FB0038
:100030006708FC006808FD00A12882073F340634E9
:100040005B344F3466346D347D3407347F346F3421
:1000500077347C3439345E347934713482074534F2
:100060006C3420346E3475346D34653472346F34CE
:10007000203420342034203420342034203461349F
:100080006C346534613474346F34723469346F3471
:100090002034653473343A342034203420348501DC
:1000A0008601870188018901831603178801890168
:1000B000031386018801051085100711831245215D
:1000C000A00120082E208421A00A10302006031D44
:1000D0006128403082211030A00020082E20842189
:1000E000A00A20302006031D6D286E218316860984
:1000F000F03081008312063081000530A3008B10A0
:100100000B160B118B168B17A101A0013C30A2001E
:1001100020081D20880005143721051021081D2006
:100120008800851437218510A20B8828A00A0A3080
:100130002006031D8628A10A0A302106031D8528F2
:1001400084280B1DBF28A30BB3280530A300023061
:10015000A800FA30A9000715B7200711B720A90B8E
:10016000AB28A80BA928063081000B11EC28013020
:10017000E4004530E5000130E600182108003D218B
:10018000A40A0618C0283D21A501A601A7016430D4
:10019000A402031CCD28A70AC7286430A4070A308C
:1001A000A402031CD528A60ACF280A30A4072408D5
:1001B000A5008316860983123030A507A607A70776
:1001C0004D30822127088421260884212508842196
:1001D0008316860983128B1000007508E0007608EC
:1001E000E1007708E2007808E3007908E4007A0883
:1001F000E5007B08E6007C08E7007D08E80072085F
:100200008A00710E8300F00E700E090000000000DD
:1002100000000000E00B062908006208E30000006F
:10022000000000000000E30B0F29E10B0D2908007E
:100230006608E7006508E800000000000000000014
:10024000E80B1C29E70B1A29E40B18290800D33006
:10025000E400D330E5006030E600182108000730E4
:10026000E4003130E500F730E600182108009D3049
:10027000E1000730E2000D2108001930E4002F30C2
:10028000E5000330E60018210800E830E1003D30C9
:10029000E2000D21552155215521023086005E21B5
:1002A0006A216C21742176210800033086005E21CA
:1002B0009C30E1000430E2000D21080086160000A9
:1002C00000000000000086120830E1002330E20048
:1002D0000D21080028309029083090290C309029F1
:1002E0000E3090290F309029013090290630902946
:1002F000023090291C309029183090291430902910
:100300001030902980389029AA002A0E0F398600D3
:1003100006165E212A080F39860006165E2108009F
:10032000AA002A0E0F3986005E212A080F3986009E
:040330005E21080042
:02400E00E423A9
:02401000FF3F70
:00000001FF
