:020000040000FA
:10000000012885018601870188018901831603176C
:1000100088018901031386018701831287091E3035
:10002000A3001030A1002C20A30B11280C30A3003A
:100030000030A1002C20A30B18283C30A30018305E
:10004000A1002C20A30B1F281430A3000830A1000E
:100050002C20A30B26280F28A2012108A00020088D
:10006000452086002208662087000230E400933095
:10007000E5000130E6008120FF308700A00AA20AD7
:1000800008302206031D2F2808008207003424347C
:1000900024342434813442343C3400340034003479
:1000A00066340034813442343C3400340034243427
:1000B00024342434003400347E34003400345A3480
:1000C00024345A34003400347E3481348207FE34C0
:1000D000FD34FB34F734EF34DF34BF347F340000B9
:1000E000000000000000E00B6F2808006208E30039
:1000F0000000000000000000E30B7828E10B7628E8
:1001000008006608E7006508E8000000000000003D
:100110000000E80B8528E70B8328E40B8128080002
:10012000D330E400D330E5006030E60081200800E1
:100130000730E4003130E500F730E60081200800A8
:0C0140009D30E1000730E200762008004E
:04014C000034003447
:02400E00E423A9
:02401000FF3F70
:00000001FF
