:020000040000FA
:02000000722864
:040002000034003492
:08000800F000030EF10083017A
:100010000A08F2006008F5006108F6006208F700BF
:100020006308F8006408F9006508FA006608FB0038
:100030006708FC006808FD00CA2882073F340634C0
:100040005B344F3466346D347D3407347F346F3421
:1000500077347C3439345E34793471348207203417
:10006000203420342034563469343A342034203457
:10007000203420342034203420346D345634543429
:10008000653463343A342034203454343D342034DD
:10009000203420342E3420342034DF34433482079B
:1000A000EE34DE34BE347E34ED34DD34BD347D34A4
:1000B000EB34DB34BB347B34E734D734B7347734B8
:1000C00082073034313432343334343435343634D6
:1000D0003734383439344134423443344434453489
:1000E00046344034850186018701880189018316E1
:1000F0000317A830880089010313F03086008701B8
:1001000088010510851055308100960910309F0038
:100110008312F021A00120082E202F22A00A1030E7
:100120002006031D8B2840302D221030A00020080F
:100130002E202F22A00A20302006031D97281922E6
:10014000A801833081003E30A300D5309F0006080F
:100150000B108B150B118B168B17A101A0013C30D6
:10016000A20020081D2088000514E22105102108A6
:100170001D2088008514E2218510A20BB128A00A59
:100180000A302006031DAF28A10A0A302106031DEC
:10019000AE28AD280B1D4729A30B43299F143E30E1
:1001A000A300A80A2808A9008E210030AB00A421D2
:1001B0009F18D828DD309F001E08A9008E21073027
:1001C000AB00A42183161E088312B100030131067F
:1001D000031DF12830302F222E302F2230302F22D5
:1001E0000D2940303106031DFC2832302F222E30DD
:1001F0002F2235302F220D2980303106031D07298B
:1002000035302F222E302F2230302F220D2937303B
:100210002F222E302F2235302F229F149F180E2987
:10022000D5309F001E08A9008E214830AB00A421C4
:1002300083161E088312B10003013106031D27290E
:100240002E302F2230302F2230302F2243294030C1
:100250003106031D32292E302F2232302F22353025
:100260002F22432980303106031D3D292E302F22B5
:1002700035302F2230302F2243292E302F22373095
:100280002F2235302F22833081000B1174298501F4
:10029000E821F0300605AE0083160F30860081138A
:1002A000831286010F300605AE07AF012F084F20DD
:1002B0002E0603196229AF0A10302F06031D562996
:1002C0001030AF004430AB002D222F0860202F22C9
:1002D0000F300606031D6829E8218316F0308600DA
:1002E0008113831206080B1000007508E0007608E1
:1002F000E1007708E2007808E3007908E4007A0872
:10030000E5007B08E6007C08E7007D08E80072084D
:100310008A00710E8300F00E700E0900A501A6017F
:10032000A7016430A902031C9729A70A9129643008
:10033000A9070A30A902031C9F29A60A99290A3095
:10034000A9072908A50008003030A507A607A707B8
:100350002B082D2227082F2226082F2225082F229E
:1003600008000000000000000000E00BB1290800B8
:100370006208E3000000000000000000E30BBA295F
:10038000E10BB82908006608E7006508E8000000EE
:10039000000000000000E80BC729E70BC529E40BAB
:1003A000C3290800D330E400D330E5006030E60014
:1003B000C32108000730E4003130E500F730E600E3
:1003C000C32108009D30E1000730E200B821080099
:1003D0001930E4002F30E5000330E600C3210800A7
:1003E000E830E1003D30E200B82100220022002286
:1003F000023087000922152217221F22212208001D
:100400000330870009229C30E1000430E200B8216B
:100410000800871600000000000000008712083066
:10042000E1002330E200B821080028303B2A0830E0
:100430003B2A0C303B2A0E303B2A0F303B2A01303E
:100440003B2A06303B2A02303B2A1C303B2A18301C
:100450003B2A14303B2A10303B2A80383B2AAA0022
:100460002A0E0F398700071609222A080F3987003C
:10047000071609220800AA002A0E0F398700092250
:0A0480002A080F398700092208003E
:02400E00E423A9
:02401000FF3F70
:00000001FF
