:020000040000FA
:10000000850186018701880189018316031788010C
:10001000890103138801091183124D2088090130D9
:10002000E4000230E5000230E600662088090E3068
:10003000E1000930E2005B20091C0E284D208809F0
:100040000630E1000430E2005B2088090330E10063
:100050002530E2005B20091C1F284D208809043050
:10006000E1001130E2005B2088094630E0005420B6
:100070000000091C2E284D2088094830E10001307D
:10008000E2005B2088091B30E000542000000000E3
:10009000091C3C284D2088010D28091C4D2875207D
:1000A000091850287520080000000000000000001A
:1000B000E00B542808006208E30000000000000084
:1000C0000000E30B5D28E10B5B2808006608E700F1
:1000D0006508E8000000000000000000E80B6A2846
:1000E000E70B6828E40B662808001930E4002F307D
:0A00F000E5000330E600662008007A
:0400FA00003400349A
:02400E00E423A9
:02401000FF3F70
:00000001FF
